:020000040000FA
:100000000C9462000C948A000C948A000C948A0070
:100010000C948A000C948A000C948A000C948A0038
:100020000C9411040C948A000C948A000C948A009D
:100030000C948A000C948A000C948A000C948A0018
:100040000C94C7030C948A000C9495030C946F03D2
:100050000C948A000C948A000C948A000C948A00F8
:100060000C948A000C948A00000000080002010031
:100070000003040700000000000000000000000072
:10008000250028002B0000000000240027002A0083
:1000900000000000230026002900040404040404D6
:1000A0000404020202020202030303030303010227
:1000B00004081020408001020408102001020408F6
:1000C0001020C40411241FBECFEFD8E0DEBFCDBF87
:1000D00023E0A4ECB1E001C01D92A039B207E1F722
:1000E00011E0A0E0B1E0ECEDF5E102C005900D9269
:1000F000A43CB107D9F710E0C2E6D0E004C02197D4
:10010000FE010E94E60AC136D107C9F70E94080520
:100110000C94EC0A0C940000A5E8B2E011968C93C4
:10012000119790E0FC01E255FF4FE4911496EC9397
:100130001497FC01E656FF4FE491F0E0EE0FFF1F2D
:10014000E057FF4F8591949113969C938E9312974D
:1001500008950F931F93CF93DF93E0916503F09180
:1001600066034091E701808510E0481708F064C0FD
:10017000142F11700091E60101114FC0842F90E0FF
:10018000880F991FE80FF91F0184F285E02D2CEEEE
:100190003FEF112311F024E130E0C091E401D09150
:1001A000E5012C0F3D1FC90163E470E00E94D20AF3
:1001B000E617F70760F0C90168E270E00E94D20A12
:1001C0006F5F7F4F81E090E06E177F0710F52C0F77
:1001D0003D1FC90163E470E00E94D20AE617F707E9
:1001E00050F0C90168E270E00E94D20A6F5F7F4F51
:1001F0006E177F0760F42C0F3D1FC90163E470E0A8
:100200000E94D20AE617F707E8F41FEF15C082E054
:1002100090E09093E3018093E2010F5F0093E60189
:100220008091E2019091E3010817190628F01092DD
:10023000E6014F5F4093E701812FDF91CF911F913E
:100240000F910895C90168E270E00E94D20A6F5FC1
:100250007F4F6E177F07C8F283E090E0DACFAF924E
:10026000BF92CF92DF92EF92FF920F931F93CF93A3
:10027000DF936C017B018B01040F151FEB015E0105
:10028000AE18BF08C017D10759F06991D601ED919A
:10029000FC910190F081E02DC6010995892B79F739
:1002A000C501DF91CF911F910F91FF90EF90DF90EB
:1002B000CF90BF90AF900895FC01538D448D252FB2
:1002C00030E0842F90E0821B930B541710F0CF96F0
:1002D000089501970895FC01918D828D981761F022
:1002E000A28DAE0FBF2FB11D5D968C91928D9F5F39
:1002F0009F73928F90E008958FEF9FEF0895FC0118
:10030000918D828D981731F0828DE80FF11D858DCA
:1003100090E008958FEF9FEF0895FC01918D228D5D
:10032000892F90E0805C9F4F821B91098F739927E2
:10033000089588EE91E00E948D0121E0892B09F457
:1003400020E0822F089580E090E0892B29F00E9420
:10035000990181110C9400000895FC01A48DA80F4F
:10036000B92FB11DA35ABF4F2C91848D90E00196F7
:100370008F739927848FA689B7892C93A089B18917
:100380008C91837080648C93938D848D981306C0B8
:100390000288F389E02D80818F7D80830895EF921C
:1003A000FF920F931F93CF93DF93EC0181E0888F2F
:1003B0009B8D8C8D98131AC0E889F989808185FFFF
:1003C00015C09FB7F894EE89FF896083E889F989A1
:1003D00080818370806480839FBF81E090E0DF91A3
:1003E000CF911F910F91FF90EF900895F62E0B8DF6
:1003F00010E00F5F1F4F0F731127E02E8C8D8E11B1
:100400000CC00FB607FCFACFE889F989808185FF17
:10041000F5CFCE010E94AD01F1CFEB8DEC0FFD2F9A
:10042000F11DE35AFF4FF0829FB7F8940B8FEA89D2
:10043000FB8980818062CFCFCF93DF93EC01888DE1
:100440008823B9F0AA89BB89E889F9898C9185FD4F
:1004500003C0808186FD0DC00FB607FCF7CF8C91DD
:1004600085FFF2CF808185FFEDCFCE010E94AD01E7
:10047000E9CFDF91CF91089590E0FC01E859FF4F5B
:100480002491FC01E255FF4F3491FC01E656FF4FE9
:10049000E491EE23C9F0222339F0233001F1A8F4CE
:1004A000213019F1223029F1F0E0EE0FFF1FE4585E
:1004B000FF4FA591B4918FB7F894EC91611126C0CC
:1004C00030953E233C938FBF08952730A9F0283004
:1004D000C9F0243049F7809180008F7D03C080915E
:1004E00080008F7780938000DFCF84B58F7784BDC5
:1004F000DBCF84B58F7DFBCF8091B0008F77809369
:10050000B000D2CF8091B0008F7DF9CF3E2BDACFF3
:100510003FB7F8948091C9019091CA01A091CB0195
:10052000B091CC0126B5A89B05C02F3F19F00196CC
:10053000A11DB11D3FBFBA2FA92F982F8827BC013D
:10054000CD01620F711D811D911D42E0660F771F65
:10055000881F991F4A95D1F708958F929F92AF9265
:10056000BF92CF92DF92EF92FF924B015C010E940B
:1005700088026B017C010E9488026C197D098E093A
:100580009F09683E734081059105A8F321E0821A16
:100590009108A108B10888EEC80E83E0D81EE11CBE
:1005A000F11C81149104A104B10429F7FF90EF908C
:1005B000DF90CF90BF90AF909F908F9008957F92E3
:1005C0008F929F92AF92BF92CF92DF92EF92FF9263
:1005D0000F931F93CF93DF93782EEA01E091650389
:1005E000F09166033F968B010C5E1F4F43E4C42ECF
:1005F000D12CC801B6010E94D20A5B0158E2E52E57
:10060000F12CC801B7010E94D20A8B010F5F1F4F66
:100610006497CE01B6010E94D20A4B01CE01B70108
:100620000E94D20AEB01219624513109C901B60179
:100630000E94D20A6B01C901B7010E94D20A6F5F02
:100640007F4F20E030E0A901A0E0808191818A15F0
:100650009B0570F10817190758F18281938188155D
:10066000990518F1C817D90728F1220F331F441F25
:10067000551F21603496AF5F7A12E7CF2093610354
:1006800030936203409363035093640381E0DF91EE
:10069000CF911F910F91FF90EF90DF90CF90BF907F
:1006A000AF909F908F907F9008958C159D0510F4CA
:1006B00080E0EDCF68177907D8F3220F331F441F6E
:1006C000551FD8CFFC0101900020E9F73197AF0109
:1006D000481B590BBC0188EE91E00C942F011F922E
:1006E0000F920FB60F9211242F933F934F935F9366
:1006F0006F937F938F939F93AF93BF93EF93FF93EA
:1007000088EE91E00E94AD01FF91EF91BF91AF9112
:100710009F918F917F916F915F914F913F912F9119
:100720000F900FBE0F901F9018951F920F920FB64B
:100730000F9211242F938F939F93EF93FF93E09148
:10074000F801F091F9018081E091FE01F091FF0143
:1007500082FD1BC09081809101028F5F8F73209179
:100760000202821741F0E0910102F0E0E851FE4FF1
:10077000958F80930102FF91EF919F918F912F911F
:100780000F900FBE0F901F9018958081F4CF1F928D
:100790000F920FB60F9211242F933F938F939F9335
:1007A000AF93BF938091C5019091C601A091C701FD
:1007B000B091C8013091C40123E0230F2D3758F5C3
:1007C0000196A11DB11D2093C4018093C501909392
:1007D000C601A093C701B093C8018091C90190914F
:1007E000CA01A091CB01B091CC010196A11DB11D10
:1007F0008093C9019093CA01A093CB01B093CC011F
:10080000BF91AF919F918F913F912F910F900FBE0C
:100810000F901F90189526E8230F0296A11DB11D79
:10082000D2CF1F920F920FB60F9211242F933F93A6
:100830004F935F936F937F938F939F93AF93BF93E8
:10084000EF93FF93E0918702F0918802908180916D
:100850008902982320918A0230918B022F3F320720
:1008600031F02F5F3F4F30938B0220938A028091AB
:100870008502811135C0911116C020918A023091F4
:100880008B022536310558F010928C0230938F027E
:1008900020938E0281E080938D02809385021092D6
:1008A0008B0210928A0280917303882341F0809119
:1008B0007203911161C061E0811161C02D9AFF91B5
:1008C000EF91BF91AF919F918F917F916F915F91C8
:1008D0004F913F912F910F900FBE0F901F90189541
:1008E000809185028130A1F49923E9F2E0918D0293
:1008F0008E0F80938D02F0E0EE0FFF1FEB57FD4F40
:1009000020918A0230918B023287218782E0C5CF05
:1009100080918502823039F5911119C0E0918D02E4
:1009200081E0E43620F080938C0283E0B6CF8E0F16
:1009300080938D02F0E0EE0FFF1FEB57FD4F2091EB
:100940008A0230918B023287218781E0A6CF2091E5
:100950008A0230918B022536310508F4A4CF83E05A
:1009600080938502A0CF80918502833009F09BCFD0
:10097000992309F494CF97CF882321F060E00E9457
:100980003C029DCF2D989BCFCF93DF93E8EEF1E013
:100990001382128288EE93E0A0E0B0E08483958316
:1009A000A683B78384E091E09183808385EC90E017
:1009B0009587848784EC90E09787868780EC90E029
:1009C000918B808B81EC90E0938B828B82EC90E01A
:1009D000958B848B86EC90E0978B868B118E128E94
:1009E000138E148EC5E8D2E0D0938403C0938303A2
:1009F00080E00E948C00E2E7F3E010821182D09345
:100A00006603C09365038BE0DF91CF910C948C005B
:100A1000CF93DF93CDB7DEB7A1970FB6F894DEBFC3
:100A20000FBECDBF789484B5826084BD84B58160EB
:100A300084BD85B5826085BD85B5816085BD8091A9
:100A40006E00816080936E00109281008091810021
:100A50008260809381008091810081608093810019
:100A6000809180008160809380008091B1008460DB
:100A70008093B1008091B00081608093B00080913C
:100A80007A00846080937A0080917A0082608093FB
:100A90007A0080917A00816080937A0080917A0058
:100AA000806880937A001092C100E091F801F09183
:100AB000F90182E08083E091F401F091F501108268
:100AC000E091F601F091F7018FEC80831092000223
:100AD000E091FC01F091FD0186E08083E091FA0154
:100AE000F091FB01808180618083E091FA01F091B7
:100AF000FB01808188608083E091FA01F091FB0125
:100B0000808180688083E091FA01F091FB0180810F
:100B10008F7D8083E0EBF0E02491ECE9F0E08491BC
:100B2000882399F090E0880F991FFC01EA57FF4F46
:100B3000A591B491FC01E458FF4F859194918FB732
:100B4000F894EC91E22BEC938FBF61E082E00E947D
:100B50003C02F89482E08093B0008093B10084E678
:100B60008093B3008093B4001092B20084E080932D
:100B7000700080918502833011F410928502789480
:100B80008091860290E0FC01E255FF4F2491865649
:100B90009F4FFC0184918823C9F090E0880F991F32
:100BA000FC01EA57FF4F45915491FC01E458FF4F77
:100BB000A591B4919FB7F894FA0180812095822382
:100BC00080838C91E22FE823EC939FBF64EF71E068
:100BD00080E090E00E94AD0288248A94982C540111
:100BE0002224239401E033243394B0E85B2E8091D7
:100BF00085028330E1F78091CD0181110AC082E145
:100C000091E00E9462038EEA91E00E9462033092BA
:100C1000CD018EE892E09093DE018093DD0180911A
:100C20008D0290E09093E0018093DF0120918C028F
:100C3000222321F010928C0210928D0220918C02BE
:100C40002093E1011092D5011092D6011092D701A4
:100C50001092D8015092600320919002309191023D
:100C6000265831092C35310590F48430910579F5F9
:100C700080919202909193028197489740F48091DD
:100C80009402909195020897089708F45CC04091EF
:100C9000DF015091E0014A31510508F47FC0E09135
:100CA000DD01F091DE01808191810A9708F05FC03B
:100CB0001092D9018092D5019092D601A092D701CD
:100CC000B092D8010093600383E190E04BC084347C
:100CD0009105E9F6809192029091930282549109D4
:100CE0008F97A8F620E332E040E956E060E372E037
:100CF00080E20E94DF02882351F2E091DD01F09151
:100D0000DE01EA57FF4F808191810897089708F02C
:100D1000BECF8091610390916203A0916303B09173
:100D200064038093D5019093D601A093D701B0932B
:100D3000D80180E28093D90188E090E09093D201BD
:100D40008093D1010FC01092D9018092D501909269
:100D5000D601A092D701B092D80181E880936003B8
:100D600088E090E09093570380935603C4C082813B
:100D7000938184974A9790F423E030E060E0C12C9F
:100D8000D12C7601848195810897089738F4868163
:100D900097818231910588F18097C8F13092E701FF
:100DA000E9E7F3E0F093E501E093E4011092E60156
:100DB0000E94A900813009F007C1C12CD12C760115
:100DC00010E0E0916503F091660390858091E70162
:100DD000891708F041C00E94A900782E0E94A9003E
:100DE000711030C0813009F0EFC0CC0CDD1CEE1C5E
:100DF000FF1C6894C0F81F5FE4CF8930910570F242
:100E0000419760F6CC0CDD1CEE1CFF1C06C0CC0C20
:100E1000DD1CEE1CFF1C6894C0F86F5F2E5F3F4F17
:100E200034962417350708F4ADCF6093D901C092EA
:100E3000D501D092D601E092D701F092D80183E19A
:100E400090E07CCFF1E07F12BFC08111BDC0CC0C1F
:100E5000DD1CEE1CFF1CCFCF812F90E090935F0331
:100E600080935E03C0926103D0926203E0926303B9
:100E7000F09264038C2D8F7390E090935B038093CA
:100E80005A03960146E0369527954A95E1F72F716A
:100E9000332730935903209358039601222730714A
:100EA000232B31F4805C9F4F90935B0380935A0314
:100EB00080E8D3FC88E88093600381859285833E37
:100EC000984028F4809160038160809360038FE0F4
:100ED00090E090935703809356031093D901C092EA
:100EE000D501D092D601E092D701F092D80190932B
:100EF000D2018093D1018091D00182258093D001CD
:100F00008091CE019091CF0101969093CF01809373
:100F1000CE016091D00182E00E943C0281EB91E021
:100F20000E946203C090CE01D090CF010D2C000C26
:100F3000EE08FF08F7FED2C26DE288EE91E00E9453
:100F4000CF0122273327A9012C193D094E095F093A
:100F500019A2FE01B1967F01CA01B9012AE030E071
:100F600040E050E00E94960A605DF70162937F01C5
:100F7000211531054105510579F7E114F10419F006
:100F8000C7010E9462038EEA91E00E94620360E959
:100F900071E080E090E00E94AD028EEA91E00E9454
:100FA000620380918502833011F41092850280E003
:100FB00090E0892B09F419CE0E949901882309F445
:100FC0000FCE0E9400000CCEE0916503F091660305
:100FD0008385948588974D9708F046C085859685CA
:100FE0000C970B9708F040C083E08093E701ECEB8F
:100FF000F1E0F093E501E093E4011092E6010E9434
:10100000A900813089F50E94A900182F81112CC0F8
:10101000C12CD12C7601E0916503F0916603908597
:101020008091E701891708F069C00E94A900682E25
:101030001330B1F00E94A900782E133021F40E94E1
:10104000A900781211C0F1E06F124EC071100CC0EF
:10105000CC0CDD1CEE1CFF1C6894C0F81F5FDBCFBE
:101060000E94A900681631F38091DF019091E001A0
:101070008236910508F48BC0E091DD01F091DE012C
:1010800082819381C397859708F081C0848195817F
:101090004A97439708F07BC020EB31E040E155E0F0
:1010A00060EB71E08CE20E94DF02882309F46FC0DC
:1010B00080E38093D9018091610390916203A091B4
:1010C0006303B09164038093D5019093D601A093FC
:1010D000D701B093D80182E090E29093D40180933D
:1010E000D30189E090E02ACE6110BECF21E07212D8
:1010F000BBCFCC0CDD1CEE1CFF1CB0CF812F90E0D1
:1011000090935F0380935E03C0926103D092620369
:10111000E0926303F09264032C2D30E08D2D1432A5
:10112000F8F480E88093600330935B0320935A03C4
:101130008D2D90E09093590380935803E0FE03C0F7
:1011400088E8809360038185928583379A4028F4EC
:101150008091600381608093600380E190E0B9CE6C
:1011600090E990936003D7FE03C098E990936003E1
:1011700030935B0320935A038F7790E09093590349
:1011800080935803F0925D03E0925C03DCCF809182
:10119000DF019091E001CC97E1F5E091DD01F09164
:1011A000DE0182819381865891098D35910588F5FC
:1011B00084819581CE978C9760F526E232E04CE2EF
:1011C00056E064EF71E08CE10E94DF02882309F1B0
:1011D000E091DD01F091DE01EA58FF4F80819181BD
:1011E00007970897B0F48091610390916203A091F2
:1011F0006303B09164038093D5019093D601A093CB
:10120000D701B093D8018CE18093D90186E090E0BA
:1012100095CD2091DF013091E001E091DD01F09169
:10122000DE01828193812232310589F4AC0148507C
:1012300051094730510558F4DF01AE5BBF4F4D9166
:101240005C91485051094730510508F45DC08D57F5
:1012500091098735910508F466C0E091DD01F091B0
:10126000DE0182819381825491098F9798F4809155
:10127000DF019091E0018430910509F08CC08481F8
:1012800095818197489730F48681978108970897D0
:1012900008F4AEC0E0916503F09166038085823268
:1012A00009F0B5C0E091DD01F091DE01828193810A
:1012B0000497059708F0ABC0848195810B970A9736
:1012C00008F0A5C02CE033E04CE157E064E071E0A9
:1012D0008FE00E94DF02882309F499C080916103A6
:1012E00090916203A0916303B09164038093D50150
:1012F0009093D601A093D701B093D8018FE080934B
:10130000D90183E090E01ACD1092D9018092D501E5
:101310009092D601A092D701B092D80100936003B9
:1013200085E090E01FCD2432310508F496CF84810A
:101330009581CE978C9708F090CF2EE032E04AE26C
:1013400056E06EE072E080E10E94DF02882309F43B
:1013500084CFE091DD01F091DE01EA5BFF4F8081F7
:1013600091810897079708F078CF80916103909159
:101370006203A0916303B09164038093D5019093BD
:10138000D601A093D701B093D80180E18093D90111
:1013900085E090E0D3CC8434910508F47BCF848140
:1013A0009581815491098F9708F074CF29E232E03A
:1013B0004BE756E069E272E080E20E94DF02882398
:1013C00009F468CF8091610390916203A091630357
:1013D000B09164038093D5019093D601A093D70177
:1013E000B093D80180E28093D90181E190E0A6CC4E
:1013F0001092D9018092D5019092D601A092D70186
:10140000B092D8010093600381E190E0ABCC609092
:10141000DF017090E001F6E06F16710408F456C029
:10142000E091DD01F091DE01329683E0E82EF12CAF
:1014300025EC3DE94CE151E81AE084819581619108
:101440007191189F6001199FD00C1124DB01AA0F24
:10145000BB1FAA0FBB1FAA0FBB1FCA16DB06A0F13A
:10146000169FD001179FB00D112463E0880F991FBC
:101470006A95E1F7DD24D394A817B90710F482E048
:10148000D82E63E971E080E091E00E94860A9B011A
:10149000AC012D258FEFE81AF80AE614F70468F27C
:1014A0002093D5013093D6014093D7015093D801B2
:1014B00080E28093D9011092D2011092D101109252
:1014C00057031092560317CDD12CDBCF80918502A4
:1014D000833009F08CCB1092850289CBA70196014D
:1014E00019A2CE0181967C01CA01B9012AE030E03F
:1014F00040E050E00E94960A605DF70162937F0130
:10150000211531054105510579F737CDDB018F9361
:101510009F930E94B80ABF91AF91A29F800D911D29
:10152000A39F900DB29F900D11240895A1E21A2E51
:10153000AA1BBB1BFD010DC0AA1FBB1FEE1FFF1F77
:10154000A217B307E407F50720F0A21BB30BE40BC7
:10155000F50B661F771F881F991F1A9469F760950E
:101560007095809590959B01AC01BD01CF010895C8
:101570000E94C30AA59F900DB49F900DA49F800D5B
:10158000911D11240895A29FB001B39FC001A39F94
:10159000700D811D1124911DB29F700D811D1124AC
:1015A000911D0895AA1BBB1B51E107C0AA1FBB1FB9
:1015B000A617B70710F0A61BB70B881F991F5A95DF
:1015C000A9F780959095BC01CD010895EE0FFF1FFE
:1015D0000590F491E02D0994F894FFCF00000000ED
:1015E000CF012F015C011C028D016B017F0154684A
:1015F000652066756E6374696F6E206465636F64E1
:10160000652826726573756C7473292920697320A7
:101610006465707265636174656420616E64206DD9
:101620006179206E6F7420776F726B206173206513
:101630007870656374656421204A757374207573CE
:1016400065206465636F6465282920776974686F15
:101650007574206120706172616D657465722061BE
:101660006E6420497252656365697665722E6465A1
:10167000636F6465644952446174612E3C666965B8
:101680006C646E616D653E202E000D0A00534C4166
:101690005645204465746563746564203A202000D3
:107E0000112484B714BE81FFF0D085E080938100F7
:107E100082E08093C00088E18093C10086E0809377
:107E2000C20080E18093C4008EE0C9D0259A86E02C
:107E300020E33CEF91E0309385002093840096BBD3
:107E4000B09BFECF1D9AA8958150A9F7CC24DD24C4
:107E500088248394B5E0AB2EA1E19A2EF3E0BF2EE7
:107E6000A2D0813461F49FD0082FAFD0023811F036
:107E7000013811F484E001C083E08DD089C08234E0
:107E800011F484E103C0853419F485E0A6D080C0E4
:107E9000853579F488D0E82EFF2485D0082F10E0AE
:107EA000102F00270E291F29000F111F8ED06801E7
:107EB0006FC0863521F484E090D080E0DECF843638
:107EC00009F040C070D06FD0082F6DD080E0C81688
:107ED00080E7D80618F4F601B7BEE895C0E0D1E017
:107EE00062D089930C17E1F7F0E0CF16F0E7DF06D8
:107EF00018F0F601B7BEE89568D007B600FCFDCFD4
:107F0000A601A0E0B1E02C9130E011968C91119780
:107F100090E0982F8827822B932B1296FA010C0160
:107F200087BEE89511244E5F5F4FF1E0A038BF0790
:107F300051F7F601A7BEE89507B600FCFDCF97BE46
:107F4000E89526C08437B1F42ED02DD0F82E2BD052
:107F50003CD0F601EF2C8F010F5F1F4F84911BD097
:107F6000EA94F801C1F70894C11CD11CFA94CF0C13
:107F7000D11C0EC0853739F428D08EE10CD085E9AC
:107F80000AD08FE07ACF813511F488E018D01DD067
:107F900080E101D065CF982F8091C00085FFFCCF94
:107FA0009093C60008958091C00087FFFCCF809118
:107FB000C00084FD01C0A8958091C6000895E0E648
:107FC000F0E098E1908380830895EDDF803219F02E
:107FD00088E0F5DFFFCF84E1DECF1F93182FE3DFCA
:107FE0001150E9F7F2DF1F91089580E0E8DFEE27F6
:047FF000FF270994CA
:027FFE00040479
:00000001FF
