:100000000C9462000C948A000C948A000C948A0070
:100010000C948A000C948A000C948A000C948A0038
:100020000C9481040C948A000C948A000C948A002D
:100030000C948A000C948A000C948A000C948A0018
:100040000C9437040C948A000C9405040C94DF0380
:100050000C948A000C948A000C948A000C948A00F8
:100060000C948A000C948A000000000025002800EF
:100070002B0000000000240027002A0000000008D8
:10008000000201000003040700000000000000005F
:1000900000000000230026002900040404040404D6
:1000A0000404020202020202030303030303010227
:1000B00004081020408001020408102001020408F6
:1000C0001020340511241FBECFEFD8E0DEBFCDBF16
:1000D00023E0A0EDB1E001C01D92AC39B207E1F719
:1000E00011E0A0E0B1E0EEE8F6E102C005900D926B
:1000F000A03DB107D9F710E0C2E6D0E004C02197D7
:10010000FE010E943F0BC136D107C9F70E94780556
:100110000C94450B0C940000A1E9B2E011968C936D
:10012000119790E0FC01E255FF4FE4911496EC9397
:100130001497FC01E656FF4FE491F0E0EE0FFF1F2D
:10014000E057FF4F8591949113969C938E9312974D
:1001500008950F931F93CF93DF93E0917103F09174
:1001600072034091F301808510E0481708F064C0E5
:10017000142F11700091F20101114FC0842F90E0F3
:10018000880F991FE80FF91F0184F285E02D2CEEEE
:100190003FEF112311F024E130E0C091F001D09144
:1001A000F1012C0F3D1FC90163E470E00E942B0B8D
:1001B000E617F70760F0C90168E270E00E942B0BB8
:1001C0006F5F7F4F81E090E06E177F0710F52C0F77
:1001D0003D1FC90163E470E00E942B0BE617F7078F
:1001E00050F0C90168E270E00E942B0B6F5F7F4FF7
:1001F0006E177F0760F42C0F3D1FC90163E470E0A8
:100200000E942B0BE617F707E8F41FEF15C082E0FA
:1002100090E09093EF018093EE010F5F0093F20165
:100220008091EE019091EF010817190628F01092C5
:10023000F2014F5F4093F301812FDF91CF911F9126
:100240000F910895C90168E270E00E942B0B6F5F67
:100250007F4F6E177F07C8F283E090E0DACFAF924E
:10026000BF92CF92DF92EF92FF920F931F93CF93A3
:10027000DF936C017B018B01040F151FEB015E0105
:10028000AE18BF08C017D10759F06991D601ED919A
:10029000FC910190F081E02DC6010995892B79F739
:1002A000C501DF91CF911F910F91FF90EF90DF90EB
:1002B000CF90BF90AF900895FC01538D448D252FB2
:1002C00030E0842F90E0821B930B541710F0CF96F0
:1002D000089501970895FC01918D828D981761F022
:1002E000A28DAE0FBF2FB11D5D968C91928D9F5F39
:1002F0009F73928F90E008958FEF9FEF0895FC0118
:10030000918D828D981731F0828DE80FF11D858DCA
:1003100090E008958FEF9FEF0895FC01918D228D5D
:10032000892F90E0805C9F4F821B91098F739927E2
:10033000089584EF91E00E948D0121E0892B09F45A
:1003400020E0822F089580E090E0892B29F00E9420
:10035000990181110C9400000895FC01A48DA80F4F
:10036000B92FB11DA35ABF4F2C91848D90E00196F7
:100370008F739927848FA689B7892C93A089B18917
:100380008C91837080648C93938D848D981306C0B8
:100390000288F389E02D80818F7D80830895EF921C
:1003A000FF920F931F93CF93DF93EC0181E0888F2F
:1003B0009B8D8C8D98131AC0E889F989808185FFFF
:1003C00015C09FB7F894EE89FF896083E889F989A1
:1003D00080818370806480839FBF81E090E0DF91A3
:1003E000CF911F910F91FF90EF900895F62E0B8DF6
:1003F00010E00F5F1F4F0F731127E02E8C8D8E11B1
:100400000CC00FB607FCFACFE889F989808185FF17
:10041000F5CFCE010E94AD01F1CFEB8DEC0FFD2F9A
:10042000F11DE35AFF4FF0829FB7F8940B8FEA89D2
:10043000FB8980818062CFCFCF93DF93EC01888DE1
:100440008823B9F0AA89BB89E889F9898C9185FD4F
:1004500003C0808186FD0DC00FB607FCF7CF8C91DD
:1004600085FFF2CF808185FFEDCFCE010E94AD01E7
:10047000E9CFDF91CF910895833081F028F4813066
:1004800099F08230A9F008958730A9F08830C9F03A
:100490008430B1F4809180008F7D03C08091800012
:1004A0008F7780938000089584B58F7784BD0895F9
:1004B00084B58F7DFBCF8091B0008F778093B000A3
:1004C00008958091B0008F7DF9CF1F93CF93DF9374
:1004D000282F30E0F901E458FF4F8491F901E255EB
:1004E000FF4FD491F901E656FF4FC491CC23A9F0F8
:1004F000162F81110E943C02EC2FF0E0EE0FFF1F3F
:10050000E859FF4FA591B4918FB7F894EC91111170
:1005100008C0D095DE23DC938FBFDF91CF911F9170
:100520000895DE2BF8CF3FB7F8948091D5019091D4
:10053000D601A091D701B091D80126B5A89B05C0DE
:100540002F3F19F00196A11DB11D3FBFBA2FA92F52
:10055000982F8827BC01CD01620F711D811D911D4F
:1005600042E0660F771F881F991F4A95D1F70895BB
:100570008F929F92AF92BF92CF92DF92EF92FF92B3
:100580004B015C010E9493026B017C010E9493026B
:100590006C197D098E099F09683E7340810591059C
:1005A000A8F321E0821A9108A108B10888EEC80ECC
:1005B00083E0D81EE11CF11C81149104A104B10454
:1005C00029F7FF90EF90DF90CF90BF90AF909F9072
:1005D0008F9008957F928F929F92AF92BF92CF9209
:1005E000DF92EF92FF920F931F93CF93DF93782EBA
:1005F000EA01E0917103F09172033F968B010C5E6A
:100600001F4F43E4C42ED12CC801B6010E942B0B0E
:100610005B0158E2E52EF12CC801B7010E942B0BBB
:100620008B010F5F1F4F6497CE01B6010E942B0B09
:100630004B01CE01B7010E942B0BEB0121962451F7
:100640003109C901B6010E942B0B6B01C901B70129
:100650000E942B0B6F5F7F4F20E030E0A901A0E0EC
:10066000808191818A159B0570F10817190758F14F
:10067000828193818815990518F1C817D90728F147
:10068000220F331F441F551F21603496AF5F7A122B
:10069000E7CF20936D0330936E0340936F03509325
:1006A000700381E0DF91CF911F910F91FF90EF9048
:1006B000DF90CF90BF90AF909F908F907F900895E4
:1006C0008C159D0510F480E0EDCF68177907D8F3FD
:1006D000220F331F441F551FD8CFFC01019000206B
:1006E000E9F73197AF01481B590BBC0184EF91E04A
:1006F0000C942F018F929F92AF92BF920F931F93F2
:10070000CF93DF93CDB7DEB7A1970FB6F894DEBFD6
:100710000FBECDBF19A2423008F44AE08E010F5D32
:100720001F4F842E912CB12CA12CA50194010E9465
:10073000EF0AE62FB901CA01EA30F4F4E05DD8010E
:10074000EE938D01232B242B252B79F790E080E06D
:10075000109719F0CD010E946D03A1960FB6F89481
:10076000DEBF0FBECDBFDF91CF911F910F91BF9024
:10077000AF909F908F900895E95CE1CFCF92DF9288
:10078000EF92FF92CF93DF936B017C016DE284EFD8
:1007900091E00E94CF01EC0166277727CB016C190D
:1007A0007D098E099F094AE00E947A038C0F9D1FE4
:1007B000DF91CF91FF90EF90DF90CF9008951F923F
:1007C0000F920FB60F9211242F933F934F935F9385
:1007D0006F937F938F939F93AF93BF93EF93FF9309
:1007E00084EF91E00E94AD01FF91EF91BF91AF9135
:1007F0009F918F917F916F915F914F913F912F9139
:100800000F900FBE0F901F9018951F920F920FB66A
:100810000F9211242F938F939F93EF93FF93E09167
:100820000402F09105028081E0910A02F0910B022E
:1008300082FD1BC0908180910D028F5F8F7320918C
:100840000E02821741F0E0910D02F0E0EC50FE4FF5
:10085000958F80930D02FF91EF919F918F912F9132
:100860000F900FBE0F901F9018958081F4CF1F92AC
:100870000F920FB60F9211242F933F938F939F9354
:10088000AF93BF938091D1019091D201A091D301F8
:10089000B091D4013091D00123E0230F2D3758F5CA
:1008A0000196A11DB11D2093D0018093D101909399
:1008B000D201A093D301B093D4018091D50190913E
:1008C000D601A091D701B091D8010196A11DB11D0B
:1008D0008093D5019093D601A093D701B093D8010E
:1008E000BF91AF919F918F913F912F910F900FBE2C
:1008F0000F901F90189526E8230F0296A11DB11D99
:10090000D2CF1F920F920FB60F9211242F933F93C5
:100910004F935F936F937F938F939F93AF93BF9307
:10092000EF93FF93E0919302F09194029081809174
:100930009502982320919602309197022F3F32071B
:1009400031F02F5F3F4F30939702209396028091B2
:100950009102811135C0911116C0209196023091FB
:1009600097022536310558F01092980230939B0279
:1009700020939A0281E080939902809391021092D1
:1009800097021092960280917F03882341F0809114
:100990007E03911161C061E0811161C02D9AFF91C8
:1009A000EF91BF91AF919F918F917F916F915F91E7
:1009B0004F913F912F910F900FBE0F901F90189560
:1009C000809191028130A1F49923E9F2E09199029A
:1009D0008E0F80939902F0E0EE0FFF1FEF56FD4F50
:1009E00020919602309197023287218782E0C5CF0D
:1009F00080919102823039F5911119C0E0919902EC
:100A000081E0E43620F08093980283E0B6CF8E0F29
:100A100080939902F0E0EE0FFF1FEF56FD4F2091FB
:100A20009602309197023287218781E0A6CF2091EC
:100A30009602309197022536310508F4A4CF83E061
:100A400080939102A0CF80919102833009F09BCFD7
:100A5000992309F494CF97CF882321F060E00E9476
:100A600065029DCF2D989BCFCF93DF93E4EFF1E00C
:100A70001382128288EE93E0A0E0B0E08483958335
:100A8000A683B78384E091E09183808385EC90E036
:100A90009587848784EC90E09787868780EC90E048
:100AA000918B808B81EC90E0938B828B82EC90E039
:100AB000958B848B86EC90E0978B868B118E128EB3
:100AC000138E148EC1E9D2E0D0939003C0938F03AC
:100AD00080E00E948C00EEE7F3E010821182D09358
:100AE0007203C09371038BE0DF91CF910C948C0063
:100AF000789484B5826084BD84B5816084BD85B5F9
:100B0000826085BD85B5816085BD80916E00816004
:100B100080936E00109281008091810082608093AA
:100B200081008091810081608093810080918000AC
:100B30008160809380008091B10084608093B100D7
:100B40008091B00081608093B00080917A008460D1
:100B500080937A0080917A00826080937A008091FD
:100B60007A00816080937A0080917A008068809317
:100B70007A001092C100E0910402F091050282E037
:100B80008083E0910002F09101021082E091020264
:100B9000F09103028FEC808310920C02E091080226
:100BA000F091090286E08083E0910602F09107024D
:100BB000808180618083E0910602F091070280814C
:100BC00088608083E0910602F0910702808180684E
:100BD0008083E0910602F091070280818F7D8083FF
:100BE000E0EBF0E02491ECE9F0E08491882399F0C7
:100BF00090E0880F991FFC01EE58FF4FA591B4912A
:100C0000FC01E859FF4F859194918FB7F8949C911E
:100C1000292B2C938FBF60E082E00E946502F8943C
:100C200082E08093B0008093B10084E68093B300AB
:100C30008093B4001092B20084E0809370008091A1
:100C40009102833011F41092910278948091920273
:100C500090E0FC01E255FF4F249186569F4FFC0126
:100C600084918823C1F090E0880F991FFC01EE5811
:100C7000FF4FA591B491FC01E859FF4FC591D49164
:100C80009FB7F8948C91E22FE0958E238C93888106
:100C9000E823E8839FBF68E57BE180E090E00E9465
:100CA000B8021092DC0111E0B3E08B2E99249394EA
:100CB000CC24CA94DC2C7601D0E880919102833058
:100CC000E1F78091D90181110AC082E191E00E948F
:100CD0006D038EEA91E00E946D039092D9018AE93A
:100CE00092E09093EA018093E9018091990290E06B
:100CF0009093EC018093EB0120919802222321F044
:100D00001092980210929902209198022093ED017E
:100D10001092E1011092E2011092E3011092E401BD
:100D2000D0936C0320919C0230919D02265831098A
:100D30002C35310590F48430910579F580919E022F
:100D400090919F028197489740F48091A0029091E2
:100D5000A1020897089708F45CC04091EB015091FC
:100D6000EC014A31510508F47FC0E091E901F091AE
:100D7000EA01808191810A9708F05FC01092E50135
:100D8000C092E101D092E201E092E301F092E4012D
:100D900010936C0383E190E04BC084349105E9F635
:100DA00080919E0290919F02825491098F97A8F69C
:100DB00020E332E040E956E060E372E080E20E9426
:100DC000EA02882351F2E091E901F091EA01EA5741
:100DD000FF4F808191810897089708F0BECF8091DE
:100DE0006D0390916E03A0916F03B0917003809397
:100DF000E1019093E201A093E301B093E40180E26A
:100E00008093E50188E090E09093DE018093DD011E
:100E10000FC01092E501C092E101D092E201E09290
:100E2000E301F092E40181E880936C0388E090E0B4
:100E30009093630380936203C4C0828193818497FB
:100E40004A9790F423E030E060E0412C512C3201CD
:100E5000848195810897089738F48681978182313B
:100E6000910588F18097C8F19092F301E9E7F3E0EA
:100E7000F093F101E093F0011092F2010E94A900B9
:100E8000813009F012C1412C512C3201C0E0E091B7
:100E90007103F091720390858091F301891708F036
:100EA00041C00E94A900082F0E94A900011130C072
:100EB000813009F0FAC0440C551C661C771C6894FC
:100EC00040F8CF5FE4CF8930910570F2419760F62A
:100ED000440C551C661C771C06C0440C551C661C33
:100EE000771C689440F86F5F2E5F3F4F349624174D
:100EF000350708F4ADCF6093E5014092E1015092CF
:100F0000E2016092E3017092E40183E190E07CCF22
:100F1000013009F0CAC08111C8C0440C551C661CC0
:100F2000771CCFCF8C2F90E090936B0380936A0354
:100F300040926D0350926E0360926F037092700343
:100F4000842D8F7390E090936703809366039201E2
:100F500046E0369527954A95E1F72F713327309370
:100F6000650320936403920122273071232B31F40F
:100F7000805C9F4F909367038093660380E853FCE7
:100F800088E880936C0381859285833E984028F49D
:100F900080916C03816080936C038FE090E090936C
:100FA000630380936203C093E5014092E101509294
:100FB000E2016092E3017092E4019093DE0180937C
:100FC000DD018091DC0121E082278093DC018091AA
:100FD000DA019091DB0101969093DB018093DA01B5
:100FE0006091DC0182E00E94650281EB91E00E9449
:100FF0006D03EEE7F0E08491E0EBF0E0C491ECE902
:10100000F0E0D49170E060E0DD2399F081110E945E
:101010003C02ED2FF0E0EE0FFF1FE057FF4FA591D0
:10102000B4918C91C82391E080E009F490E0692F9D
:10103000782F072E000C880B990B4AE00E947A0348
:101040008EEA91E00E946D038CEB91E00E946D03AB
:101050006091DA017091DB01072E000C880B990B6F
:1010600097FFA9C20E94BE038EEA91E00E946D0321
:1010700060E971E080E090E00E94B8028EEA91E0C1
:101080000E946D0380919102833011F410929102BD
:1010900080E090E0892B09F40FCE0E94990188230B
:1010A00009F40ACE0E94000007CEE0917103F0918E
:1010B00072038385948588974D9708F045C0858590
:1010C00096850C970B9708F03FC08092F3018CEB4C
:1010D00091E09093F1018093F0011092F2010E944F
:1010E000A900813089F50E94A900C82F81112CC068
:1010F000412C512C3201E0917103F09172039085E3
:101100008091F301891708F069C00E94A900B82EE8
:10111000C330B1F00E94A900082FC33021F40E940F
:10112000A900081311C091E0B9124EC001110CC002
:10113000440C551C661C771C689440F8CF5FDBCFCD
:101140000E94A900B81631F38091EB019091EC0157
:101150008236910508F48BC0E091E901F091EA0133
:1011600082819381C397859708F081C0848195819E
:101170004A97439708F07BC020EB31E040E155E00F
:1011800060EB71E08CE20E94EA02882309F46FC0F0
:1011900080E38093E50180916D0390916E03A091AF
:1011A0006F03B09170038093E1019093E201A093EB
:1011B000E301B093E40182E090E29093E001809338
:1011C000DF0189E090E020CEB110BECF013009F000
:1011D000BBCF440C551C661C771CB0CF8C2F90E005
:1011E00090936B0380936A0340926D0350926E0359
:1011F00060926F0370927003242D30E0852DC4320D
:10120000F8F480E880936C033093670320936603BF
:10121000852D90E0909365038093640360FE03C086
:1012200088E880936C038185928583379A4028F4FF
:1012300080916C03816080936C0380E190E0AFCE7D
:1012400090E990936C0357FE03C098E990936C0368
:1012500030936703209366038F7790E09093650344
:10126000809364037092690360926803DCCF80917D
:10127000EB019091EC01CC97E1F5E091E901F0915F
:10128000EA0182819381865891098D35910588F50F
:1012900084819581CE978C9760F526E232E04CE20E
:1012A00056E064EF71E08CE10E94EA02882309F1C4
:1012B000E091E901F091EA01EA58FF4F80819181C4
:1012C00007970897B0F480916D0390916E03A091F9
:1012D0006F03B09170038093E1019093E201A093BA
:1012E000E301B093E4018CE18093E50186E090E0B6
:1012F0008BCD4091EB015091EC01E091E901F0912F
:10130000EA01828193814232510589F49C0128507F
:1013100031092730310558F4DF01AE5BBF4F2D9105
:101320003C91285031092730310508F45DC08D57B4
:1013300091098735910508F466C0E091E901F091C3
:10134000EA0182819381825491098F9798F4809168
:10135000EB019091EC018430910509F08CC08481FF
:1013600095818197489730F48681978108970897EF
:1013700008F4AEC0E0917103F0917203808582326F
:1013800009F0B5C0E091E901F091EA018281938111
:101390000497059708F0ABC0848195810B970A9755
:1013A00008F0A5C02CE033E04CE157E064E071E0C8
:1013B0008FE00E94EA02882309F499C080916D03AE
:1013C00090916E03A0916F03B09170038093E1013F
:1013D0009093E201A093E301B093E4018FE0809346
:1013E000E50183E090E010CD1092E501C092E101AB
:1013F000D092E201E092E301F092E40110936C03D9
:1014000085E090E015CD4432510508F496CF8481F3
:101410009581CE978C9708F090CF2EE032E04AE28B
:1014200056E06EE072E080E10E94EA02882309F44F
:1014300084CFE091E901F091EA01EA5BFF4F8081FE
:1014400091810897079708F078CF80916D0390916C
:101450006E03A0916F03B09170038093E1019093AC
:10146000E201A093E301B093E40180E18093E50100
:1014700085E090E0C9CC8434910508F47BCF848169
:101480009581815491098F9708F074CF29E232E059
:101490004BE756E069E272E080E20E94EA028823AC
:1014A00009F468CF80916D0390916E03A0916F0352
:1014B000B09170038093E1019093E201A093E30166
:1014C000B093E40180E28093E50181E190E09CCC5F
:1014D0001092E501C092E101D092E201E092E301B5
:1014E000F092E40110936C0381E190E0A1CC209094
:1014F000EB013090EC01F6E02F16310408F453C0F4
:10150000E091E901F091EA01329625EC3DE94CE1E8
:1015100051E8C3E0D0E00AE0848195816191719146
:10152000089F5001099FB00C1124DB01AA0FBB1FBB
:10153000AA0FBB1FAA0FBB1FAA16BB0690F1069FDE
:10154000D001079FB00D112463E0880F991F6A95A1
:10155000E1F7BB24B394A817B90710F492E0B92EB1
:1015600063E971E080E091E00E94DF0A9B01AC0139
:101570002B252196C215D30578F22093E1013093F3
:10158000E2014093E3015093E40180E28093E5019E
:101590001092DE011092DD0110926303109262033B
:1015A00010CDB12CDDCF80919102833009F085CB35
:1015B0001092910282CB4AE00E947A0355CDDB0162
:1015C0008F939F930E94110BBF91AF91A29F800DAB
:1015D000911DA39F900DB29F900D11240895A1E23B
:1015E0001A2EAA1BBB1BFD010DC0AA1FBB1FEE1F9D
:1015F000FF1FA217B307E407F50720F0A21BB30BE8
:10160000E40BF50B661F771F881F991F1A9469F763
:1016100060957095809590959B01AC01BD01CF01BF
:1016200008950E941C0BA59F900DB49F900DA49F40
:10163000800D911D11240895A29FB001B39FC00198
:10164000A39F700D811D1124911DB29F700D811DEE
:101650001124911D0895AA1BBB1B51E107C0AA1FAD
:10166000BB1FA617B70710F0A61BB70B881F991F43
:101670005A95A9F780959095BC01CD010895EE0F7C
:0E168000FF1F0590F491E02D0994F894FFCF20
:10168E0000000000CF012F015C011C028D016B01D7
:10169E007F015468652066756E6374696F6E206491
:1016AE0065636F64652826726573756C747329297A
:1016BE00206973206465707265636174656420616E
:1016CE006E64206D6179206E6F7420776F726B205F
:1016DE00617320657870656374656421204A757343
:1016EE007420757365206465636F6465282920779F
:1016FE006974686F7574206120706172616D6574B4
:10170E00657220616E642049725265636569766503
:10171E00722E6465636F6465644952446174612E10
:10172E003C6669656C646E616D653E202E000D0A27
:10173E0000494F205354415445203A00534C4156D2
:10174E0045204465746563746564203A202000006A
:00000001FF
