:100000000C945D000C94B1050C948A050C94850049
:100010000C9485000C9485000C9485000C9485004C
:100020000C9485000C9485000C9485000C9485003C
:100030000C9485000C9485000C9485000C9485002C
:100040000C9440050C9485000C940E050C94E80467
:100050000C9485000C9485000C9485000C9485000C
:100060000C9485000C9485000000000024002700FB
:100070002A0000000000250028002B0004040404CE
:100080000404040402020202020203030303030342
:10009000010204081020408001020408102001021F
:1000A00004081020000000080002010000030407FB
:1000B0000000000000000000D80511241FBECFEF93
:1000C000D8E0DEBFCDBF11E0A0E0B1E0EEE8F0E1A6
:1000D00002C005900D92A237B107D9F722E0A2E73E
:1000E000B1E001C01D92AE33B207E1F710E0CDE5FB
:1000F000D0E004C02197FE010E943F08CC35D10713
:10010000C9F70E943A060C9445080C94000082300E
:10011000C8F4E82FF0E0EE0FFF1FEF5FFE4F718392
:100120006083813041F0809169008C7F8160809391
:100130006900E89A089580916900837F84608093C4
:100140006900E99A089581E080937D01089581E036
:10015000809380010895AF92BF92CF92DF92EF9289
:10016000FF920F931F93CF93DF936C017B018B0161
:10017000040F151FEB015E01AE18BF08C017D107B1
:1001800059F06991D601ED91FC910190F081E02D3B
:10019000C6010995892B79F7C501DF91CF911F9190
:1001A0000F91FF90EF90DF90CF90BF90AF900895A8
:1001B000FC01538D448D252F30E0842F90E0821B6D
:1001C000930B541710F0CF96089501970895FC01F2
:1001D000918D828D981761F0A28DAE0FBF2FB11D4A
:1001E0005D968C91928D9F5F9F73928F90E00895A2
:1001F0008FEF9FEF0895FC01918D828D981731F05C
:10020000828DE80FF11D858D90E008958FEF9FEFAF
:100210000895FC01918D228D892F90E0805C9F4F85
:10022000821B91098F739927089581E891E00E94BC
:10023000090121E0892B09F420E0822F089580E054
:1002400090E0892B29F00E94150181110C94000087
:100250000895FC01A48DA80FB92FB11DA35ABF4F5B
:100260002C91848D90E001968F739927848FA689B5
:10027000B7892C93A089B1898C91837080648C9309
:10028000938D848D981306C00288F389E02D8081B8
:100290008F7D80830895EF92FF920F931F93CF93EA
:1002A000DF93EC0181E0888F9B8D8C8D98131AC0B1
:1002B000E889F989808185FF15C09FB7F894EE8998
:1002C000FF896083E889F9898081837080648083F5
:1002D0009FBF81E090E0DF91CF911F910F91FF9040
:1002E000EF900895F62E0B8D10E00F5F1F4F0F73E8
:1002F0001127E02E8C8D8E110CC00FB607FCFACFA3
:10030000E889F989808185FFF5CFCE010E94290116
:10031000F1CFEB8DEC0FFD2FF11DE35AFF4FF08273
:100320009FB7F8940B8FEA89FB8980818062CFCFD9
:10033000CF93DF93EC01888D8823B9F0AA89BB891C
:10034000E889F9898C9185FD03C0808186FD0DC007
:100350000FB607FCF7CF8C9185FFF2CF808185FF28
:10036000EDCFCE010E942901E9CFDF91CF91089511
:1003700090E0FC01EC55FF4F2491FC01E057FF4F4A
:100380003491FC01E458FF4FE491EE23C9F022239D
:1003900039F0233001F1A8F4213019F1223029F18C
:1003A000F0E0EE0FFF1FEE58FF4FA591B4918FB70D
:1003B000F894EC91611126C030953E233C938FBF99
:1003C00008952730A9F02830C9F0243049F78091EA
:1003D00080008F7D03C0809180008F7780938000A4
:1003E000DFCF84B58F7784BDDBCF84B58F7DFBCF26
:1003F0008091B0008F778093B000D2CF8091B00011
:100400008F7DF9CF3E2BDACFCF93DF9390E0FC01C5
:10041000E057FF4F249184589F4FFC01849188231B
:10042000D1F090E0880F991FFC01E859FF4FA5918A
:10043000B491FC01EE58FF4FC591D491623071F434
:100440009FB7F8943C91822F809583238C93E88109
:100450002E2B28839FBFDF91CF9108958FB7F894FB
:10046000EC912E2B2C938FBFF6CF3FB7F894809151
:10047000770190917801A0917901B0917A0126B528
:10048000A89B05C02F3F19F00196A11DB11D3FBFCC
:10049000BA2FA92F982F8827BC01CD01620F711D9B
:1004A000811D911D42E0660F771F881F991F4A9595
:1004B000D1F708958F929F92AF92BF92CF92DF9221
:1004C000EF92FF924B015C010E9435026B017C01AF
:1004D0000E9435026C197D098E099F09683E7340A0
:1004E00081059105A8F321E0821A9108A108B108BD
:1004F00088EEC80E83E0D81EE11CF11C8114910423
:10050000A104B10429F7FF90EF90DF90CF90BF9046
:10051000AF909F908F9008952FB7F89460917301DA
:100520007091740180917501909176012FBF0895AB
:100530000895089590E080E00895CF93DF93EC0153
:1005400060E08E810E94B80161E08E810E94B80156
:1005500060E08E810E94B8018BE891E00197F1F78D
:10056000DF91CF910895CF92DF92EF92FF920F9398
:100570001F93CF93DF936C017C0187E0E80EF11CA1
:10058000D0E0C0E0062F10E0B8010C2E02C0759537
:1005900067950A94E2F76170F70181917F010E94EB
:1005A000B8012196C430D10579F7C601DF91CF910A
:1005B0001F910F91FF90EF90DF90CF900C949D02D0
:1005C000CF92DF92EF92FF920F931F93CF93DF931F
:1005D000EC01F62E642F8C810E94B8018D818F3F33
:1005E00019F060E00E94B8010F2D10E08F8584FFA4
:1005F00025C06E0187E0C80ED11CF12CE12CB8019A
:100600000E2C02C0759567950A94E2F76170F601A9
:1006100081916F010E94B801FFEFEF1AFF0A88E095
:10062000E816F10461F7CE01DF91CF911F910F9190
:10063000FF90EF90DF90CF900C949D02B80184E082
:10064000759567958A95E1F7CE010E94B3026F2DEB
:10065000CE01DF91CF911F910F91FF90EF90DF902E
:10066000CF900C94B30240E0682F86E292E00C94A5
:10067000E002CF93DF93613029F0909135029860CA
:10068000909335026093390210923A0290E490936D
:100690003B0280933C02805C80933D0261E080914C
:1006A0002A020E94040280912B028F3F19F061E020
:1006B0000E94040261E080912C020E940402C6E2C2
:1006C000D2E09E01265232408091350284FD0BC05B
:1006D00084E090E021962817390744F461E08E8188
:1006E0000E940402EECF88E090E0F4CF8BE39DE01F
:1006F0000197F1F760E080912A020E94B80160E062
:1007000080912C020E94B80180912B028F3F19F03A
:1007100060E00E94B8018091350284FD39C063E039
:1007200086E292E00E94B302CBE4D6E4CE010197C8
:10073000F1F763E086E292E00E94B3022197F1F7BD
:1007400063E086E292E00E94B30283E592E00197C3
:10075000F1F762E086E292E00E94B30280913502F6
:1007600080620E94330384E0809336028CE00E9412
:10077000330381E00E9433038BE39FE10197F1F79C
:1007800082E08093370286E0DF91CF910C943303AF
:1007900080620E9433038BE496E40197F1F7809125
:1007A000350280620E94330383E592E00197F1F7FE
:1007B0008091350280620E943303D0CF909139023C
:1007C000691710F06FEF690FE62FF0E0EA5DFD4F5B
:1007D0009489890F80680C94330341E00E94E00201
:1007E00081E090E00895FB0101900020E9F7319746
:1007F000AF01461B570BDC01ED91FC910280F381A8
:10080000E02D09944F925F926F927F928F929F9208
:10081000AF92BF92CF92DF92EF92FF920F931F930E
:10082000CF93DF93CDB7DEB7A1970FB6F894DEBFB5
:100830000FBECDBF8C016B01770FEE08FF08F7FEEE
:1008400049C0DC01ED91FC910190F081E02D6DE259
:1008500009955C0122273327A9012C193D094E096E
:100860005F0919A2FE01B1967F019AE0492E512C31
:10087000612C712CCA01B901A30192010E941D08CB
:10088000605DD7016E937D0121153105410551054C
:1008900089F790E080E0109721F0BD01C8010E9427
:1008A000F3038A0D9B1DA1960FB6F894DEBF0FBE11
:1008B000CDBFDF91CF911F910F91FF90EF90DF900F
:1008C000CF90BF90AF909F908F907F906F905F90F0
:1008D0004F900895A701960119A2FE01B1967F01DC
:1008E0008AE0882E912CA12CB12CCA01B901A50156
:1008F00094010E941D08605DD7016E937D01211552
:1009000031054105510589F790E080E0109759F2D3
:10091000BD01C8010E94F303C6CF0C94F30381E02C
:100920000E9433038BE39FE10197F1F760E080E0E1
:100930000E94DE0363E271E086E292E00E948D0491
:1009400061E080E00E94DE0368E371E086E292E00D
:100950000E948D0461E086E00E94DE0360917E01CA
:1009600070917F0186E292E00E94020462E080E0E2
:100970000E94DE036CE371E086E292E00E948D0447
:1009800062E086E00E94DE0360917B0170917C0151
:1009900086E292E00E94020463E080E00E94DE03AF
:1009A00061E471E086E292E00E948D0463E086E0FB
:1009B0000E94DE0360917E0170917F0180917B0136
:1009C00090917C01680F791F86E292E00C940204FA
:1009D0001F920F920FB60F9211242F933F934F93B4
:1009E0005F936F937F938F939F93AF93BF93EF9397
:1009F000FF9381E891E00E942901FF91EF91BF915F
:100A0000AF919F918F917F916F915F914F913F91A6
:100A10002F910F900FBE0F901F9018951F920F925D
:100A20000FB60F9211242F938F939F93EF93FF9301
:100A3000E0919101F09192018081E0919701F09114
:100A4000980182FD1BC0908180919A018F5F8F7306
:100A500020919B01821741F0E0919A01F0E0EF575D
:100A6000FE4F958F80939A01FF91EF919F918F9107
:100A70002F910F900FBE0F901F9018958081F4CF8B
:100A80001F920F920FB60F9211242F933F938F93C3
:100A90009F93AF93BF938091730190917401A09144
:100AA0007501B09176013091720123E0230F2D374B
:100AB00058F50196A11DB11D209372018093730119
:100AC00090937401A0937501B093760180917701A2
:100AD00090917801A0917901B0917A010196A11DC0
:100AE000B11D8093770190937801A0937901B09321
:100AF0007A01BF91AF919F918F913F912F910F906C
:100B00000FBE0F901F90189526E8230F0296A11D87
:100B1000B11DD2CF1F920F920FB60F9211242F93B7
:100B20003F934F935F936F937F938F939F93AF9375
:100B3000BF93EF93FF93E0910301F09104010995B6
:100B4000FF91EF91BF91AF919F918F917F916F91A5
:100B50005F914F913F912F910F900FBE0F901F907B
:100B600018951F920F920FB60F9211242F933F9357
:100B70004F935F936F937F938F939F93AF93BF93A5
:100B8000EF93FF93E0910101F09102010995FF912C
:100B9000EF91BF91AF919F918F917F916F915F91F5
:100BA0004F913F912F910F900FBE0F901F9018956E
:100BB000E1E8F1E01382128288EE93E0A0E0B0E079
:100BC00084839583A683B78389E091E091838083B2
:100BD00085EC90E09587848784EC90E09787868702
:100BE00080EC90E0918B808B81EC90E0938B828BFA
:100BF00082EC90E0958B848B86EC90E0978B868BD3
:100C0000118E128E138E148EE6E2F2E0138212829F
:100C10008BE191E09183808389E084838FEF8583EA
:100C20008AE0868388E0878387E0808786E0818703
:100C300085E082871386148615861686178661E0FE
:100C400080E10E9439030E948C020E948C02609312
:100C500022027093230280932402909325020E9423
:100C60008C0260931E0270931F0280932002909367
:100C700021020895789484B5826084BD84B5816032
:100C800084BD85B5826085BD85B5816085BD809157
:100C90006E00816080936E001092810080918100CF
:100CA00082608093810080918100816080938100C7
:100CB000809180008160809380008091B100846089
:100CC0008093B1008091B00081608093B0008091EA
:100CD0007A00846080937A0080917A0082608093A9
:100CE0007A0080917A00816080937A0080917A0006
:100CF000806880937A001092C100E0919101F09198
:100D0000920182E08083E0918D01F0918E0110824A
:100D1000E0918F01F09190018FEC80831092990106
:100D2000E0919501F091960186E08083E091930136
:100D3000F0919401808180618083E0919301F09132
:100D40009401808188608083E0919301F091940107
:100D5000808180688083E0919301F091940180818B
:100D60008F7D808362E082E00E94040262E083E083
:100D70000E94040262E080E10E94390368EE73E0A1
:100D800080E090E00E945A0263EA70E080E00E94F6
:100D9000870067EA70E081E00E94870064E084E1F8
:100DA0000E94390360E080E00E94DE0363E271E0AC
:100DB00086E292E00E948D0461E080E00E94DE0302
:100DC00068E371E086E292E00E948D0461E086E0D3
:100DD0000E94DE0370E060E086E292E00E9402047E
:100DE00062E080E00E94DE036CE371E086E292E064
:100DF0000E948D0462E086E00E94DE0370E060E005
:100E000086E292E00E94020463E080E00E94DE033A
:100E100061E471E086E292E00E948D0463E086E086
:100E20000E94DE0370E060E086E292E00E9402042D
:100E300068E873E180E090E00E945A02109280011D
:100E400010927D01C0E0D0E080918001882309F4F8
:100E500068C00E948C026B017C01C0922202D09279
:100E60002302E0922402F09225020E948C026C1967
:100E70007D098E099F096538734081059105A8F3A6
:100E800080917E0190917F01019690937F018093E4
:100E90007E0110927D01109280010E948F0466E411
:100EA00071E081E891E00E948D0460917E01709173
:100EB0007F0180917B0190917C01680F791F81E80F
:100EC00091E00E9402046FE471E081E891E00E94E9
:100ED0008D046BE571E081E891E00E948D046091E2
:100EE0007E0170917F0181E891E00E94020461E639
:100EF00071E081E891E00E948D0468E671E081E88C
:100F000091E00E948D0460917B0170917C0181E8E9
:100F100091E00E9402046FE671E081E891E00E9496
:100F2000F30380917D01882309F468C00E948C023C
:100F30006B017C01C0921E02D0921F02E09220023F
:100F4000F09221020E948C026C197D098E099F0982
:100F50006538734081059105A8F380917B019091DC
:100F60007C01019690937C0180937B0110927D011E
:100F7000109280010E948F0466E471E081E891E0A4
:100F80000E948D0460917E0170917F0180917B01B0
:100F900090917C01680F791F81E891E00E94020422
:100FA0006FE471E081E891E00E948D046BE571E0EF
:100FB00081E891E00E948D0460917E0170917F0133
:100FC00081E891E00E94020461E671E081E891E02D
:100FD0000E948D0468E671E081E891E00E948D0432
:100FE00060917B0170917C0181E891E00E94020494
:100FF0006FE671E081E891E00E94F30310928001B6
:1010000010927D0180910001882361F0109200010F
:1010100010927F0110927E0110927C0110927B0150
:101020000E948F04209709F40FCF0E941501882396
:1010300009F40ACF0E94000007CFA1E21A2EAA1BD2
:10104000BB1BFD010DC0AA1FBB1FEE1FFF1FA21778
:10105000B307E407F50720F0A21BB30BE40BF50B75
:10106000661F771F881F991F1A9469F760957095FE
:10107000809590959B01AC01BD01CF010895EE0FC5
:0E108000FF1F0590F491E02D0994F894FFCF26
:10108E000198029802000000004B01AB00D80098B6
:10109E00010901E700FB0000000000ED03AB009A20
:1010AE00029902484F504520534543204551502048
:1010BE00505654204C544400494E20004F55542055
:1010CE00004E45542000544F54414C203A200020ED
:1010DE00202D2D2D203E3E3E202000494E203A2030
:1010EE000020207C7C2020004F5554203A20000DFB
:0210FE000A00E6
:00000001FF
