:100000000C945D000C94E9040C94C2040C948500DB
:100010000C9485000C9485000C9485000C9485004C
:100020000C9485000C9485000C9485000C9485003C
:100030000C9485000C9485000C9485000C9485002C
:100040000C9478040C9485000C9446040C942004C1
:100050000C9485000C9485000C9485000C9485000C
:100060000C9485000C9485000000000024002700FB
:100070002A0000000000250028002B0004040404CE
:100080000404040402020202020203030303030342
:10009000010204081020408001020408102001021F
:1000A00004081020000000080002010000030407FB
:1000B0000000000000000000100511241FBECFEF5B
:1000C000D8E0DEBFCDBF11E0A0E0B1E0E4E6FEE0A5
:1000D00002C005900D92A634B107D9F722E0A6E43C
:1000E000B1E001C01D92A231B207E1F710E0CDE509
:1000F000D0E004C02197FE010E942A07CC35D10729
:10010000C9F70E9472050C9430070C9400008230ED
:10011000C8F4E82FF0E0EE0FFF1FE050FF4F7183AF
:100120006083813041F0809169008C7F8160809391
:100130006900E89A089580916900837F84608093C4
:100140006900E99A089581E080935101089581E062
:10015000809354010895AF92BF92CF92DF92EF92B5
:10016000FF920F931F93CF93DF936C017B018B0161
:10017000040F151FEB015E01AE18BF08C017D107B1
:1001800059F06991D601ED91FC910190F081E02D3B
:10019000C6010995892B79F7C501DF91CF911F9190
:1001A0000F91FF90EF90DF90CF90BF90AF900895A8
:1001B000FC01538D448D252F30E0842F90E0821B6D
:1001C000930B541710F0CF96089501970895FC01F2
:1001D000918D828D981761F0A28DAE0FBF2FB11D4A
:1001E0005D968C91928D9F5F9F73928F90E00895A2
:1001F0008FEF9FEF0895FC01918D828D981731F05C
:10020000828DE80FF11D858D90E008958FEF9FEFAF
:100210000895FC01918D228D892F90E0805C9F4F85
:10022000821B91098F739927089585E591E00E94BB
:10023000090121E0892B09F420E0822F089580E054
:1002400090E0892B29F00E94150181110C94000087
:100250000895FC01A48DA80FB92FB11DA35ABF4F5B
:100260002C91848D90E001968F739927848FA689B5
:10027000B7892C93A089B1898C91837080648C9309
:10028000938D848D981306C00288F389E02D8081B8
:100290008F7D80830895EF92FF920F931F93CF93EA
:1002A000DF93EC0181E0888F9B8D8C8D98131AC0B1
:1002B000E889F989808185FF15C09FB7F894EE8998
:1002C000FF896083E889F9898081837080648083F5
:1002D0009FBF81E090E0DF91CF911F910F91FF9040
:1002E000EF900895F62E0B8D10E00F5F1F4F0F73E8
:1002F0001127E02E8C8D8E110CC00FB607FCFACFA3
:10030000E889F989808185FFF5CFCE010E94290116
:10031000F1CFEB8DEC0FFD2FF11DE35AFF4FF08273
:100320009FB7F8940B8FEA89FB8980818062CFCFD9
:10033000CF93DF93EC01888D8823B9F0AA89BB891C
:10034000E889F9898C9185FD03C0808186FD0DC007
:100350000FB607FCF7CF8C9185FFF2CF808185FF28
:10036000EDCFCE010E942901E9CFDF91CF91089511
:1003700090E0FC01EC55FF4F2491FC01E057FF4F4A
:100380003491FC01E458FF4FE491EE23C9F022239D
:1003900039F0233001F1A8F4213019F1223029F18C
:1003A000F0E0EE0FFF1FEE58FF4FA591B4918FB70D
:1003B000F894EC91611126C030953E233C938FBF99
:1003C00008952730A9F02830C9F0243049F78091EA
:1003D00080008F7D03C0809180008F7780938000A4
:1003E000DFCF84B58F7784BDDBCF84B58F7DFBCF26
:1003F0008091B0008F778093B000D2CF8091B00011
:100400008F7DF9CF3E2BDACFCF93DF9390E0FC01C5
:10041000E057FF4F249184589F4FFC01849188231B
:10042000D1F090E0880F991FFC01E859FF4FA5918A
:10043000B491FC01EE58FF4FC591D491623071F434
:100440009FB7F8943C91822F809583238C93E88109
:100450002E2B28839FBFDF91CF9108958FB7F894FB
:10046000EC912E2B2C938FBFF6CF2FB7F894609181
:100470004B0170914C0180914D0190914E012FBF25
:1004800008950895089590E080E008958F929F92D6
:10049000AF92BF920F931F93CF93DF93CDB7DEB789
:1004A000A1970FB6F894DEBF0FBECDBF19A24230A0
:1004B00008F44AE08E010F5D1F4F842E912CB12C61
:1004C000A12CA50194010E940807E62FB901CA01D9
:1004D000EA3044F5E05DD801EE938D01232B242B07
:1004E000252B79F790E080E0109769F0FD010190ED
:1004F0000020E9F73197AF014A1B5B0BBD018AEF82
:1005000091E00E94AB00A1960FB6F894DEBF0FBE3B
:10051000CDBFDF91CF911F910F91BF90AF909F9072
:100520008F900895E95CD7CFFC0101900020E9F796
:100530003197AF01481B590BBC018AEF91E00C9435
:10054000AB00CF93DF93EC0160E08E810E94B80195
:1005500061E08E810E94B80160E08E810E94B80146
:100560008BE891E00197F1F7DF91CF910895CF9259
:10057000DF92EF92FF920F931F93CF93DF936C0163
:100580007C0187E0E80EF11CD0E0C0E0062F10E00F
:10059000B8010C2E02C0759567950A94E2F7617058
:1005A000F70181917F010E94B8012196C430D105E5
:1005B00079F7C601DF91CF911F910F91FF90EF90D6
:1005C000DF90CF900C94A102CF92DF92EF92FF9236
:1005D0000F931F93CF93DF93EC01F62E642F8C8142
:1005E0000E94B8018D818F3F19F060E00E94B80130
:1005F0000F2D10E08F8584FF25C06E0187E0C80EA7
:10060000D11CF12CE12CB8010E2C02C07595679518
:100610000A94E2F76170F60181916F010E94B801BE
:10062000FFEFEF1AFF0A88E0E816F10461F7CE0148
:10063000DF91CF911F910F91FF90EF90DF90CF90BE
:100640000C94A102B80184E0759567958A95E1F74D
:10065000CE010E94B7026F2DCE01DF91CF911F9185
:100660000F91FF90EF90DF90CF900C94B70240E095
:10067000682F8AEF91E00C94E402CF93DF9361300E
:1006800029F09091090298609093090260930D02FD
:1006900010920E0290E490930F0280931002805CFF
:1006A0008093110261E08091FE010E94040280911A
:1006B000FF018F3F19F061E00E94040261E0809128
:1006C00000020E940402CAEFD1E09E012A5F31407D
:1006D0008091090284FD0BC084E090E021962817E8
:1006E000390744F461E08E810E940402EECF88E075
:1006F00090E0F4CF8BE39DE00197F1F760E080910B
:10070000FE010E94B80160E0809100020E94B801E1
:100710008091FF018F3F19F060E00E94B801809145
:10072000090284FD39C063E08AEF91E00E94B702BC
:10073000CBE4D6E4CE010197F1F763E08AEF91E0D4
:100740000E94B7022197F1F763E08AEF91E00E94DF
:10075000B70283E592E00197F1F762E08AEF91E05A
:100760000E94B7028091090280620E94370384E0F0
:1007700080930A028CE00E94370381E00E943703D5
:100780008BE39FE10197F1F782E080930B0286E013
:10079000DF91CF910C94370380620E9437038BE482
:1007A00096E40197F1F78091090280620E94370375
:1007B00083E592E00197F1F78091090280620E943F
:1007C0003703D0CF90910D02691710F06FEF690FCA
:1007D000E62FF0E0E650FE4F9489890F80680C9474
:1007E000370341E00E94E40281E090E00895CF9257
:1007F000DF92EF92FF926C01990FEE08FF08F7FE6F
:1008000016C041E06DE28AEF91E00E94E4026627A3
:100810007727CB016C197D098E099F094AE00E9458
:1008200046020196FF90EF90DF90CF9008954AE046
:10083000C701B601FF90EF90DF90CF900C94460275
:100840001F920F920FB60F9211242F933F934F9345
:100850005F936F937F938F939F93AF93BF93EF9328
:10086000FF9385E591E00E942901FF91EF91BF91EF
:10087000AF919F918F917F916F915F914F913F9138
:100880002F910F900FBE0F901F9018951F920F92EF
:100890000FB60F9211242F938F939F93EF93FF9393
:1008A000E0916501F09166018081E0916B01F0912A
:1008B0006C0182FD1BC0908180916E018F5F8F73F0
:1008C00020916F01821741F0E0916E01F0E0EB5A48
:1008D000FE4F958F80936E01FF91EF919F918F91C5
:1008E0002F910F900FBE0F901F9018958081F4CF1D
:1008F0001F920F920FB60F9211242F933F938F9355
:100900009F93AF93BF9380914B0190914C01A09125
:100910004D01B0914E0130914A0123E0230F2D3754
:1009200058F50196A11DB11D20934A0180934B01FA
:1009300090934C01A0934D01B0934E0180914601DC
:1009400090914701A0914801B09149010196A11DE4
:10095000B11D8093460190934701A0934801B09345
:100960004901BF91AF919F918F913F912F910F902E
:100970000FBE0F901F90189526E8230F0296A11D19
:10098000B11DD2CF1F920F920FB60F9211242F9349
:100990003F934F935F936F937F938F939F93AF9307
:1009A000BF93EF93FF93E0910201F091030109954A
:1009B000FF91EF91BF91AF919F918F917F916F9137
:1009C0005F914F913F912F910F900FBE0F901F900D
:1009D00018951F920F920FB60F9211242F933F93E9
:1009E0004F935F936F937F938F939F93AF93BF9337
:1009F000EF93FF93E0910001F09101010995FF91C0
:100A0000EF91BF91AF919F918F917F916F915F9186
:100A10004F913F912F910F900FBE0F901F901895FF
:100A2000E5E5F1E01382128288EE93E0A0E0B0E009
:100A300084839583A683B78388E091E09183808344
:100A400085EC90E09587848784EC90E09787868793
:100A500080EC90E0918B808B81EC90E0938B828B8B
:100A600082EC90E0958B848B86EC90E0978B868B64
:100A7000118E128E138E148EEAEFF1E01382128221
:100A80008AE191E09183808389E084838FEF85837D
:100A90008AE0868388E0878387E0808786E0818795
:100AA00085E082871386148615861686178661E090
:100AB00080E10E943D030E9435020E94350260934E
:100AC000F6017093F7018093F8019093F9010E9469
:100AD00035026093F2017093F3018093F4019093D7
:100AE000F5010895789484B5826084BD84B58160F1
:100AF00084BD85B5826085BD85B5816085BD8091E9
:100B00006E00816080936E00109281008091810060
:100B10008260809381008091810081608093810058
:100B2000809180008160809380008091B10084601A
:100B30008093B1008091B00081608093B00080917B
:100B40007A00846080937A0080917A00826080933A
:100B50007A0080917A00816080937A0080917A0097
:100B6000806880937A001092C100E0916501F09155
:100B7000660182E08083E0916101F0916201108260
:100B8000E0916301F09164018FEC808310926D011C
:100B9000E0916901F0916A0186E08083E09167014C
:100BA000F0916801808180618083E0916701F0911C
:100BB0006801808188608083E0916701F09168011D
:100BC000808180688083E0916701F0916801808175
:100BD0008F7D808362E082E00E94040262E083E015
:100BE0000E94040263EA70E080E00E94870067EAE6
:100BF00070E081E00E94870064E084E10E943D0390
:100C000060E080E00E94E20382E291E00E949402B0
:100C100061E080E00E94E20387E391E00E94940299
:100C200061E086E00E94E20390E080E00E94F7032A
:100C300062E080E00E94E2038BE391E00E94940274
:100C400062E086E00E94E20390E080E00E94F70309
:100C500063E080E00E94E20380E491E00E9494025D
:100C600063E086E00E94E20390E080E00E94F703E8
:100C7000109254011092510181E00E9437038BE3DE
:100C80009FE10197F1F760E080E00E94E20382E2D9
:100C900091E00E94940261E080E00E94E20387E319
:100CA00091E00E94940261E086E00E94E20380915C
:100CB0005201909153010E94F70362E080E00E948C
:100CC000E2038BE391E00E94940262E086E00E94DE
:100CD000E20380914F01909150010E94F70363E07D
:100CE00080E00E94E20380E491E00E94940263E0CD
:100CF00086E00E94E20320915201309153018091DD
:100D00004F0190915001820F931F0E94F703C0E0A2
:100D1000D0E080915401882321F10E9435026B01BB
:100D20007C01C092F601D092F701E092F801F092B6
:100D3000F9010E9435026C197D098E099F096538F9
:100D4000734081059105A8F3809152019091530160
:100D50000196909353018093520110925101109289
:100D6000540180915101882321F10E9435026B01C9
:100D70007C01C092F201D092F301E092F401F09272
:100D8000F5010E9435026C197D098E099F096538AD
:100D9000734081059105A8F380914F019091500116
:100DA00001969093500180934F011092510110923F
:100DB000540161E086E00E94E2038091520190912B
:100DC00053010E94F70362E086E00E94E2038091F3
:100DD0004F01909150010E94F70363E086E00E946A
:100DE000E203209152013091530180914F01909183
:100DF0005001820F931F0E94F703209709F489CFB7
:100E00000E941501882309F484CF0E94000081CF3D
:100E1000A1E21A2EAA1BBB1BFD010DC0AA1FBB1FFE
:100E2000EE1FFF1FA217B307E407F50720F0A21B70
:100E3000B30BE40BF50B661F771F881F991F1A94DD
:100E400069F760957095809590959B01AC01BD0107
:100E5000CF010895EE0FFF1F0590F491E02D099446
:040E6000F894FFCF34
:100E640041024102000000004B01AB00D800980190
:100E74000901E700FB0000000000F103AB0043029E
:100E84004202484F5045205345432045515020507D
:100E94005654204C544400494E20004F55542000D1
:060EA4004E455420000041
:00000001FF
