:020000040000FA
:100000000C945D000C94CB040C94A4040C94850017
:100010000C9485000C9485000C9485000C9485004C
:100020000C9485000C9485000C9485000C9485003C
:100030000C9485000C9485000C9485000C9485002C
:100040000C945A040C9485000C9428040C9402041B
:100050000C9485000C9485000C9485000C9485000C
:100060000C9485000C9485000000000024002700FB
:100070002A0000000000250028002B0004040404CE
:100080000404040402020202020203030303030342
:10009000010204081020408001020408102001021F
:1000A00004081020000000080002010000030407FB
:1000B0000000000000000000F20411241FBECFEF7A
:1000C000D8E0DEBFCDBF11E0A0E0B1E0E2E6F5E1AF
:1000D00002C005900D92A437B107D9F722E0A4E73A
:1000E000B1E001C01D92AC34B207E1F710E0CDE5FC
:1000F000D0E004C02197FE010E94D107CC35D10782
:10010000C9F70E945C050C94AF0A0C940000823081
:10011000C8F4E82FF0E0EE0FFF1FEF5FFE4F718392
:100120006083813041F0809169008C7F8160809391
:100130006900E89A089580916900837F84608093C4
:100140006900E99A089581E080938901089581E02A
:1001500080938A010895AF92BF92CF92DF92EF927F
:10016000FF920F931F93CF93DF936C017B018B0161
:10017000040F151FEB015E01AE18BF08C017D107B1
:1001800059F06991D601ED91FC910190F081E02D3B
:10019000C6010995892B79F7C501DF91CF911F9190
:1001A0000F91FF90EF90DF90CF90BF90AF900895A8
:1001B000FC01538D448D252F30E0842F90E0821B6D
:1001C000930B541710F0CF96089501970895FC01F2
:1001D000918D828D981761F0A28DAE0FBF2FB11D4A
:1001E0005D968C91928D9F5F9F73928F90E00895A2
:1001F0008FEF9FEF0895FC01918D828D981731F05C
:10020000828DE80FF11D858D90E008958FEF9FEFAF
:100210000895FC01918D228D892F90E0805C9F4F85
:10022000821B91098F73992708958BE891E00E94B2
:10023000090121E0892B09F420E0822F089580E054
:1002400090E0892B29F00E94150181110C94000087
:100250000895FC01A48DA80FB92FB11DA35ABF4F5B
:100260002C91848D90E001968F739927848FA689B5
:10027000B7892C93A089B1898C91837080648C9309
:10028000938D848D981306C00288F389E02D8081B8
:100290008F7D80830895EF92FF920F931F93CF93EA
:1002A000DF93EC0181E0888F9B8D8C8D98131AC0B1
:1002B000E889F989808185FF15C09FB7F894EE8998
:1002C000FF896083E889F9898081837080648083F5
:1002D0009FBF81E090E0DF91CF911F910F91FF9040
:1002E000EF900895F62E0B8D10E00F5F1F4F0F73E8
:1002F0001127E02E8C8D8E110CC00FB607FCFACFA3
:10030000E889F989808185FFF5CFCE010E94290116
:10031000F1CFEB8DEC0FFD2FF11DE35AFF4FF08273
:100320009FB7F8940B8FEA89FB8980818062CFCFD9
:10033000CF93DF93EC01888D8823B9F0AA89BB891C
:10034000E889F9898C9185FD03C0808186FD0DC007
:100350000FB607FCF7CF8C9185FFF2CF808185FF28
:10036000EDCFCE010E942901E9CFDF91CF91089511
:1003700090E0FC01EC55FF4F2491FC01E057FF4F4A
:100380003491FC01E458FF4FE491EE23C9F022239D
:1003900039F0233001F1A8F4213019F1223029F18C
:1003A000F0E0EE0FFF1FEE58FF4FA591B4918FB70D
:1003B000F894EC91611126C030953E233C938FBF99
:1003C00008952730A9F02830C9F0243049F78091EA
:1003D00080008F7D03C0809180008F7780938000A4
:1003E000DFCF84B58F7784BDDBCF84B58F7DFBCF26
:1003F0008091B0008F778093B000D2CF8091B00011
:100400008F7DF9CF3E2BDACFCF93DF9390E0FC01C5
:10041000E057FF4F249184589F4FFC01849188231B
:10042000D1F090E0880F991FFC01E859FF4FA5918A
:10043000B491FC01EE58FF4FC591D491623071F434
:100440009FB7F8943C91822F809583238C93E88109
:100450002E2B28839FBFDF91CF9108958FB7F894FB
:10046000EC912E2B2C938FBFF6CF3FB7F894809151
:10047000790190917A01A0917B01B0917C0126B520
:10048000A89B05C02F3F19F00196A11DB11D3FBFCC
:10049000BA2FA92F982F8827BC01CD01620F711D9B
:1004A000811D911D42E0660F771F881F991F4A9595
:1004B000D1F708952FB7F894609175017091760186
:1004C00080917701909178012FBF08950895089544
:1004D00090E080E00895FB0101900020E9F731975A
:1004E000AF01461B570BDC01ED91FC910280F381BB
:1004F000E02D0994BC0184E392E00C946B02CF934D
:10050000DF93EC0160E08E810E94B80161E08E8192
:100510000E94B80160E08E810E94B8018BE891E0F2
:100520000197F1F7DF91CF910895CF92DF92EF928B
:10053000FF920F931F93CF93DF936C017C0187E0B1
:10054000E80EF11CD0E0C0E0062F10E0B8010C2E40
:1005500002C0759567950A94E2F76170F701819181
:100560007F010E94B8012196C430D10579F7C601F8
:10057000DF91CF911F910F91FF90EF90DF90CF907F
:100580000C947F02CF92DF92EF92FF920F931F9312
:10059000CF93DF93EC01F62E642F8C810E94B8017B
:1005A0008D818F3F19F060E00E94B8010F2D10E09F
:1005B0008F8584FF25C06E0187E0C80ED11CF12C09
:1005C000E12CB8010E2C02C0759567950A94E2F7EC
:1005D0006170F60181916F010E94B801FFEFEF1A7F
:1005E000FF0A88E0E816F10461F7CE01DF91CF91B0
:1005F0001F910F91FF90EF90DF90CF900C947F02AE
:10060000B80184E0759567958A95E1F7CE010E945F
:1006100095026F2DCE01DF91CF911F910F91FF9029
:10062000EF90DF90CF900C94950240E0682F84E328
:1006300092E00C94C202CF93DF93613029F0909145
:1006400043029860909343026093470210924802DD
:1006500090E49093490280934A02805C80934B021D
:1006600061E0809138020E940402809139028F3F3C
:1006700019F061E00E94040261E080913A020E9458
:100680000402C4E3D2E09E0124533240809143022D
:1006900084FD0BC084E090E021962817390744F4CC
:1006A00061E08E810E940402EECF88E090E0F4CFFA
:1006B0008BE39DE00197F1F760E0809138020E94A2
:1006C000B80160E080913A020E94B801809139023D
:1006D0008F3F19F060E00E94B8018091430284FDD1
:1006E00039C063E084E392E00E949502CBE4D6E453
:1006F000CE010197F1F763E084E392E00E94950256
:100700002197F1F763E084E392E00E94950283E58C
:1007100092E00197F1F762E084E392E00E94950293
:100720008091430280620E94150384E0809344021A
:100730008CE00E94150381E00E9415038BE39FE18A
:100740000197F1F782E08093450286E0DF91CF9137
:100750000C94150380620E9415038BE496E40197C4
:10076000F1F78091430280620E94150383E592E0D5
:100770000197F1F78091430280620E941503D0CF68
:1007800090914702691710F06FEF690FE62FF0E0C4
:10079000EC5CFD4F9489890F80680C94150341E04F
:1007A0000E94C20281E090E008950F931F93CF93BF
:1007B000DF93CDB7DEB7E2970FB6F894DEBF0FBE7A
:1007C000CDBF9F938F9383E291E09F938F938E0190
:1007D0000F5F1F4F1F930F930E94D707C8010E94FE
:1007E0007A020F900F900F900F900F900F90E2965B
:1007F0000FB6F894DEBF0FBECDBFDF91CF911F9132
:100800000F9108951F920F920FB60F9211242F93FC
:100810003F934F935F936F937F938F939F93AF9388
:10082000BF93EF93FF938BE891E00E942901FF9122
:10083000EF91BF91AF919F918F917F916F915F9158
:100840004F913F912F910F900FBE0F901F901895D1
:100850001F920F920FB60F9211242F938F939F9395
:10086000EF93FF93E0919B01F0919C018081E091D7
:10087000A101F091A20182FD1BC090818091A40191
:100880008F5F8F732091A501821741F0E091A40141
:10089000F0E0E557FE4F958F8093A401FF91EF9113
:1008A0009F918F912F910F900FBE0F901F901895D1
:1008B0008081F4CF1F920F920FB60F9211242F93C5
:1008C0003F938F939F93AF93BF93809175019091C6
:1008D0007601A0917701B09178013091740123E005
:1008E000230F2D3758F50196A11DB11D20937401DA
:1008F0008093750190937601A0937701B09378016E
:100900008091790190917A01A0917B01B0917C0155
:100910000196A11DB11D8093790190937A01A09356
:100920007B01B0937C01BF91AF919F918F913F91DB
:100930002F910F900FBE0F901F90189526E8230F50
:100940000296A11DB11DD2CF1F920F920FB60F922A
:1009500011242F933F934F935F936F937F938F93C4
:100960009F93AF93BF93EF93FF93E0910301F091B7
:1009700004010995FF91EF91BF91AF919F918F91E4
:100980007F916F915F914F913F912F910F900FBE8B
:100990000F901F9018951F920F920FB60F9211246F
:1009A0002F933F934F935F936F937F938F939F9377
:1009B000AF93BF93EF93FF93E0910101F091020198
:1009C0000995FF91EF91BF91AF919F918F917F9189
:1009D0006F915F914F913F912F910F900FBE0F90AC
:1009E0001F901895EBE8F1E01382128288EE93E0F5
:1009F000A0E0B0E084839583A683B78389E091E08B
:100A00009183808385EC90E09587848784EC90E0E7
:100A10009787868780EC90E0918B808B81EC90E0CB
:100A2000938B828B82EC90E0958B848B86EC90E0AC
:100A3000978B868B118E128E138E148EE4E3F2E068
:100A4000138212828BE191E09183808389E0848319
:100A50008FEF85838AE0868388E0878387E08087BD
:100A600086E0818785E08287138614861586168640
:100A7000178661E080E10E941B030E945A02609386
:100A800030027093310280933202909333020E94BD
:100A90005A0260932C0270932D0280932E02909341
:100AA0002F020E945A0260932802709329028093B9
:100AB0002A0290932B020895789484B5826084BDB5
:100AC00084B5816084BD85B5826085BD85B5816052
:100AD00085BD80916E00816080936E0010928100D0
:100AE000809181008260809381008091810081608B
:100AF000809381008091800081608093800080914C
:100B0000B10084608093B1008091B00081608093D7
:100B1000B00080917A00846080937A0080917A009E
:100B2000826080937A0080917A00816080937A005D
:100B300080917A00806880937A001092C100E091E1
:100B40009B01F0919C0182E08083E0919701F091FC
:100B500098011082E0919901F0919A018FEC8083C5
:100B60001092A301E0919F01F091A00186E08083A3
:100B7000E0919D01F0919E01808180618083E091F0
:100B80009D01F0919E01808188608083E0919D01AC
:100B9000F0919E01808180688083E0919D01F091B9
:100BA0009E0180818F7D808362E082E00E9404024A
:100BB00062E083E00E94040264E084E10E941B037F
:100BC00060E080E00E94C00388E291E00E947A0227
:100BD00061E080E00E94C0038DE391E00E947A0210
:100BE00061E085E00E94C00390E080E00E94D503B0
:100BF00062E080E00E94C00381E491E00E947A02FA
:100C000062E085E00E94C00390E080E00E94D5038E
:100C100063E080E00E94C00386E491E00E947A02D3
:100C200063E085E00E94C00390E080E00E94D5036D
:100C300062E08FE00E94C0038BE491E00E947A02A0
:100C400063E08EE00E94C00390E080E00E94D50344
:100C500010928A01109289018091870190918801F8
:100C60002091850130918601821B930B092E000C87
:100C7000AA0BBB0B8093810190938201A093830107
:100C8000B093840180918701909188012091850122
:100C900030918601820F931F092E000CAA0BBB0B0B
:100CA00080937D0190937E01A0937F01B09380019A
:100CB00081E00E9415038BE39FE10197F1F760E06B
:100CC00080E00E94C00388E291E00E947A0261E025
:100CD00080E00E94C0038DE391E00E947A0261E00F
:100CE00085E00E94C00380918701909188010E9455
:100CF000D50362E080E00E94C00381E491E00E949D
:100D00007A0262E085E00E94C003809185019091A3
:100D100086010E94D50363E080E00E94C00386E460
:100D200091E00E947A0263E085E00E94C003809116
:100D30008101909182010E94D50362E08EE00E94C1
:100D4000C0038BE491E00E947A0263E08EE00E948F
:100D5000C00380917D0190917E010E94D5030E9485
:100D600035024B015C0180E1C82E87E2D82EE12CD0
:100D7000F12C0E943502681979098A099B09683E9D
:100D8000734081059105A8F321E0C21AD108E1085A
:100D9000F10888EE880E83E0981EA11CB11CC114D6
:100DA000D104E104F10429F763EA70E080E00E94D5
:100DB000870067EA70E081E00E948700C0E0D0E031
:100DC00080910001882331F10E945A026B017C015D
:100DD000C0923002D0923102E0923202F09233029D
:100DE0000E945A026C197D098E099F096131774270
:100DF0008105910568F410928A0110928901109280
:100E00008801109287011092860110928501E8CF27
:100E10001092000180918A01882381F110928A0149
:100E20000E945A026B017C01C0922C02D0922D02CA
:100E3000E0922E02F0922F020E945A026C197D0954
:100E40008E099F096538734081059105A8F380914B
:100E50008701909188010196909388018093870182
:100E60001092890161E571E08BE891E00E946B02CC
:100E700060E671E08BE891E00E946B02809189014D
:100E8000882381F1109289010E945A026B017C0132
:100E9000C0922802D0922902E0922A02F0922B02FC
:100EA0000E945A026C197D098E099F0965387340AA
:100EB00081059105A8F380918501909186010196A5
:100EC000909386018093850110928A0163E671E018
:100ED0008BE891E00E946B0260E671E08BE891E0A4
:100EE0000E946B0280918701909188012091850179
:100EF00030918601821B930B092E000CAA0BBB0BB1
:100F00008093810190938201A0938301B093840127
:100F1000809187019091880120918501309186010F
:100F2000820F931F092E000CAA0BBB0B80937D012F
:100F300090937E01A0937F01B093800161E085E0F2
:100F40000E94C00380918701909188010E94D5037F
:100F500062E085E00E94C003809185019091860146
:100F60000E94D50363E085E00E94C0038091810167
:100F7000909182010E94D50363E08EE00E94C0033D
:100F800080917D0190917E010E94D503209709F404
:100F900017CF0E941501882309F412CF0E94000088
:100FA0000FCFEE0FFF1F0590F491E02D0994AEE0F6
:100FB000B0E0EDEDF7E00C94860A0D891E8986E01D
:100FC0008C831A8309838FEF9FE79E838D83AE0105
:100FD000475E5F4F6F89788DCE0101960E94FA07B8
:100FE0002F813885020F131FF80110822E96E4E03E
:100FF0000C94A20AABE0B0E0E0E0F8E00C94780AD0
:101000007C013B018A01FC0117821682838181FFEA
:10101000C8C1CE0101965C01F7019381F30193FDF4
:10102000859193FF81913F01882309F453C1853253
:1010300039F493FD859193FF81913F01853229F425
:10104000B70190E00E94EA09E7CF912C212C312CC6
:10105000FFE1F31538F08B3211F190F4803209F191
:10106000833229F137FC3CC020ED280F2A3050F59F
:1010700036FE20C08AE0989E200D1124922E06C0D4
:101080008D3291F0803371F7689430F8F30193FD5D
:10109000859193FF81913F018111DACF21C068943E
:1010A00031F8689432F8F2CF689433F8EFCF68944F
:1010B00034F8ECCFEAE02E9E200D1124222E689405
:1010C00035F8E4CF8E3229F436FC04C1689436F842
:1010D000DDCF8C3619F4689437F8D8CF8836B1F262
:1010E000982F9F7D95549330E0F08336A1F183379C
:1010F000C1F1833509F063C02801F2E04F0E511CA5
:10110000F801C080D180692D70E036FC02C06FEF1D
:101110007FEFC6010E94D4094C01689437F8820120
:101120000AC00C5F1F4FFFE3F98388248394912C3E
:101130006501E89437F833FE2DC0522C81149104D8
:1011400071F5552009F468CFB70180E290E00E9464
:10115000EA095A94F6CFF801808189830E5F1F4F08
:10116000E4CF2801F2E04F0E511CF801C080D1807D
:10117000692D70E036FC02C06FEF7FEFC6010E9460
:10118000DF094C018201D5CFB70180E290E00E94D7
:10119000EA092A942814190409F0B0F7CECFF60111
:1011A00037FC859137FE81916F01B70190E00E9475
:1011B000EA0951105A94F1E08F1A9108BFCF843692
:1011C00019F0893609F077C0F80137FE6BC06081ED
:1011D0007181828193810C5F1F4FF32DFF763F2E2B
:1011E00097FF09C090958095709561957F4F8F4FBF
:1011F0009F4F689437F82AE030E0A5010E941A0A50
:10120000C82ECA188C2C432C36FE0CC0E89440F82B
:10121000C91440F434FE05C032FC03C0F32DFE7E39
:101220004F2E892C44FE95C0FE01EC0DF11D8081EE
:10123000803309F087C0242D297E422E842D8870AA
:10124000582E43FC95C040FE8FC09C2C821418F48D
:101250002C0C922C981844FE91C0B70180E390E0CA
:101260000E94EA0942FE09C088E790E041FE02C000
:1012700088E590E0B7010E94EA09C91408F48AC021
:10128000CA94D12C9FEFC91AD90ACA0CDB1CF601EB
:1012900082916F01B70190E00E94EA09AC14BD048D
:1012A000B1F74FCF60817181072E000C880B990B2D
:1012B0000E5F1F4F92CFD32CE894D4F82AE030E091
:1012C000853739F1232D297FD22E8F3601F148F44D
:1012D0008835A9F0F701868197812B96E2E10C947D
:1012E000940A803749F08837A9F7D4FE02C0689481
:1012F000D2F820E130E00DC06894D4F8F6CF34FE87
:1013000003C0822F8660D82E20E132E002C028E0A0
:1013100030E0F801D7FE0FC0608171818281938136
:101320000C5F1F4FA5010E941A0AC82ECA183D2C37
:10133000E89437F867CF6081718190E080E00E5FBC
:101340001F4FF0CF42FC02C0839478CF83948394E4
:1013500075CF842D867809F471CFF6CFB70180E27E
:1013600090E00E94EA0983948214C0F3512C73CF59
:10137000522C5818821408F46ECFF8CF842D86783A
:1013800009F47BCF8BE241FE80E247FC8DE2B7019E
:1013900090E071CFB70180E390E00E94EA099A944F
:1013A0006CCF8FEF9FEF99CFFC010590615070409B
:1013B0000110D8F7809590958E0F9F1F0895FC011E
:1013C0006150704001900110D8F7809590958E0F74
:1013D0009F1F08950F931F93CF93DF93182F092F0B
:1013E000EB018B8181FD09C01FEF0FEF812F902F43
:1013F000DF91CF911F910F91089582FF14C02E812C
:101400003F818C819D81281739073CF4E881F9815F
:10141000CF0101969983888310838E819F810196E5
:101420009F838E83E3CFE885F985812F0995892BEA
:10143000A1F3DACFFA01AA27283051F1203181F146
:10144000E8946F936E7F6E5F7F4F8F4F9F4FAF4FCC
:10145000B1E03ED0B4E03CD0670F781F891F9A1FDF
:10146000A11D680F791F8A1F911DA11D6A0F711D93
:10147000811D911DA11D20D009F468943F912AE09F
:10148000269F11243019305D3193DEF6CF01089587
:10149000462F4770405D4193B3E00FD0C9F7F6CFB8
:1014A000462F4F70405D4A3318F0495D31FD405280
:1014B000419302D0A9F7EACFB4E0A6959795879516
:1014C00077956795BA95C9F70097610571050895F5
:1014D0009B01AC010A2E06945795479537952795A1
:1014E000BA95C9F7620F731F841F951FA01D089539
:1014F0002F923F924F925F926F927F928F929F9224
:10150000AF92BF92CF92DF92EF92FF920F931F9311
:10151000CF93DF93CDB7DEB7CA1BDB0B0FB6F894C2
:10152000DEBF0FBECDBF09942A88398848885F8402
:101530006E847D848C849B84AA84B984C884DF8073
:10154000EE80FD800C811B81AA81B981CE0FD11D57
:101550000FB6F894DEBF0FBECDBFED010895F8942D
:10156000FFCF0166026602000000004B01AB00D80D
:101570000098010901E700FB0000000000CF03AB69
:1015800000680267022530366400484F50452053FA
:1015900045432045515020505654204C5444004956
:1015A0004E20004F555420004E45542000544F54B7
:1015B000414C00696E7369646520736C765F6D736E
:1015C00074000D0A00696E7369646520666C61675A
:0615D0005F6D7374000062
:107E0000112484B714BE81FFF0D085E080938100F7
:107E100082E08093C00088E18093C10086E0809377
:107E2000C20080E18093C4008EE0C9D0259A86E02C
:107E300020E33CEF91E0309385002093840096BBD3
:107E4000B09BFECF1D9AA8958150A9F7CC24DD24C4
:107E500088248394B5E0AB2EA1E19A2EF3E0BF2EE7
:107E6000A2D0813461F49FD0082FAFD0023811F036
:107E7000013811F484E001C083E08DD089C08234E0
:107E800011F484E103C0853419F485E0A6D080C0E4
:107E9000853579F488D0E82EFF2485D0082F10E0AE
:107EA000102F00270E291F29000F111F8ED06801E7
:107EB0006FC0863521F484E090D080E0DECF843638
:107EC00009F040C070D06FD0082F6DD080E0C81688
:107ED00080E7D80618F4F601B7BEE895C0E0D1E017
:107EE00062D089930C17E1F7F0E0CF16F0E7DF06D8
:107EF00018F0F601B7BEE89568D007B600FCFDCFD4
:107F0000A601A0E0B1E02C9130E011968C91119780
:107F100090E0982F8827822B932B1296FA010C0160
:107F200087BEE89511244E5F5F4FF1E0A038BF0790
:107F300051F7F601A7BEE89507B600FCFDCF97BE46
:107F4000E89526C08437B1F42ED02DD0F82E2BD052
:107F50003CD0F601EF2C8F010F5F1F4F84911BD097
:107F6000EA94F801C1F70894C11CD11CFA94CF0C13
:107F7000D11C0EC0853739F428D08EE10CD085E9AC
:107F80000AD08FE07ACF813511F488E018D01DD067
:107F900080E101D065CF982F8091C00085FFFCCF94
:107FA0009093C60008958091C00087FFFCCF809118
:107FB000C00084FD01C0A8958091C6000895E0E648
:107FC000F0E098E1908380830895EDDF803219F02E
:107FD00088E0F5DFFFCF84E1DECF1F93182FE3DFCA
:107FE0001150E9F7F2DF1F91089580E0E8DFEE27F6
:047FF000FF270994CA
:027FFE00040479
:00000001FF
